{
  "_format": "hh-sol-artifact-1",
  "contractName": "Meetings",
  "sourceName": "contracts/Meetings.sol",
  "abi": [
    {
      "inputs": [],
      "stateMutability": "nonpayable",
      "type": "constructor"
    },
    {
      "anonymous": false,
      "inputs": [
        {
          "indexed": false,
          "internalType": "string",
          "name": "name",
          "type": "string"
        },
        {
          "indexed": false,
          "internalType": "string",
          "name": "img",
          "type": "string"
        },
        {
          "indexed": false,
          "internalType": "string",
          "name": "date",
          "type": "string"
        },
        {
          "indexed": false,
          "internalType": "string",
          "name": "topics",
          "type": "string"
        },
        {
          "indexed": false,
          "internalType": "uint256",
          "name": "age",
          "type": "uint256"
        },
        {
          "indexed": false,
          "internalType": "address",
          "name": "owner",
          "type": "address"
        },
        {
          "indexed": false,
          "internalType": "string",
          "name": "descp",
          "type": "string"
        }
      ],
      "name": "EventsAdded",
      "type": "event"
    },
    {
      "inputs": [
        {
          "internalType": "uint256",
          "name": "",
          "type": "uint256"
        }
      ],
      "name": "EventsList",
      "outputs": [
        {
          "internalType": "address payable",
          "name": "owner",
          "type": "address"
        },
        {
          "internalType": "uint256",
          "name": "id",
          "type": "uint256"
        },
        {
          "internalType": "string",
          "name": "name",
          "type": "string"
        },
        {
          "internalType": "string",
          "name": "img",
          "type": "string"
        },
        {
          "internalType": "string",
          "name": "date",
          "type": "string"
        },
        {
          "internalType": "string",
          "name": "topics",
          "type": "string"
        },
        {
          "internalType": "uint256",
          "name": "age",
          "type": "uint256"
        },
        {
          "internalType": "string",
          "name": "descp",
          "type": "string"
        }
      ],
      "stateMutability": "view",
      "type": "function"
    },
    {
      "inputs": [
        {
          "internalType": "string",
          "name": "name",
          "type": "string"
        },
        {
          "internalType": "string",
          "name": "img",
          "type": "string"
        },
        {
          "internalType": "string",
          "name": "date",
          "type": "string"
        },
        {
          "internalType": "string",
          "name": "topics",
          "type": "string"
        },
        {
          "internalType": "uint256",
          "name": "age",
          "type": "uint256"
        },
        {
          "internalType": "string",
          "name": "descp",
          "type": "string"
        }
      ],
      "name": "createEvents",
      "outputs": [
        {
          "internalType": "uint256",
          "name": "",
          "type": "uint256"
        }
      ],
      "stateMutability": "nonpayable",
      "type": "function"
    },
    {
      "inputs": [
        {
          "internalType": "uint256",
          "name": "id",
          "type": "uint256"
        }
      ],
      "name": "getEvent",
      "outputs": [
        {
          "components": [
            {
              "internalType": "address payable",
              "name": "owner",
              "type": "address"
            },
            {
              "internalType": "uint256",
              "name": "id",
              "type": "uint256"
            },
            {
              "internalType": "string",
              "name": "name",
              "type": "string"
            },
            {
              "internalType": "string",
              "name": "img",
              "type": "string"
            },
            {
              "internalType": "string",
              "name": "date",
              "type": "string"
            },
            {
              "internalType": "string",
              "name": "topics",
              "type": "string"
            },
            {
              "internalType": "uint256",
              "name": "age",
              "type": "uint256"
            },
            {
              "internalType": "string",
              "name": "descp",
              "type": "string"
            }
          ],
          "internalType": "struct Meetings.Events",
          "name": "",
          "type": "tuple"
        }
      ],
      "stateMutability": "view",
      "type": "function"
    },
    {
      "inputs": [],
      "name": "getEvents",
      "outputs": [
        {
          "components": [
            {
              "internalType": "address payable",
              "name": "owner",
              "type": "address"
            },
            {
              "internalType": "uint256",
              "name": "id",
              "type": "uint256"
            },
            {
              "internalType": "string",
              "name": "name",
              "type": "string"
            },
            {
              "internalType": "string",
              "name": "img",
              "type": "string"
            },
            {
              "internalType": "string",
              "name": "date",
              "type": "string"
            },
            {
              "internalType": "string",
              "name": "topics",
              "type": "string"
            },
            {
              "internalType": "uint256",
              "name": "age",
              "type": "uint256"
            },
            {
              "internalType": "string",
              "name": "descp",
              "type": "string"
            }
          ],
          "internalType": "struct Meetings.Events[]",
          "name": "",
          "type": "tuple[]"
        }
      ],
      "stateMutability": "view",
      "type": "function"
    },
    {
      "inputs": [],
      "name": "manager",
      "outputs": [
        {
          "internalType": "address",
          "name": "",
          "type": "address"
        }
      ],
      "stateMutability": "view",
      "type": "function"
    },
    {
      "inputs": [],
      "name": "noofCampaigns",
      "outputs": [
        {
          "internalType": "uint256",
          "name": "",
          "type": "uint256"
        }
      ],
      "stateMutability": "view",
      "type": "function"
    }
  ],
  "bytecode": "0x608060405234801561001057600080fd5b5033600160006101000a81548173ffffffffffffffffffffffffffffffffffffffff021916908373ffffffffffffffffffffffffffffffffffffffff1602179055506119f2806100616000396000f3fe608060405234801561001057600080fd5b50600436106100625760003560e01c8063404aa8f914610067578063481c6a751461008557806357130ccc146100a35780636237042b146100d35780636d1884e01461010a578063cab02e031461013a575b600080fd5b61006f610158565b60405161007c919061107b565b60405180910390f35b61008d61055c565b60405161009a91906110be565b60405180910390f35b6100bd60048036038101906100b8919061124e565b610582565b6040516100ca9190611376565b60405180910390f35b6100ed60048036038101906100e89190611391565b610721565b604051610101989796959493929190611417565b60405180910390f35b610124600480360381019061011f9190611391565b610a31565b6040516101319190611584565b60405180910390f35b610142610da2565b60405161014f9190611376565b60405180910390f35b6060600060025467ffffffffffffffff811115610178576101776110f7565b5b6040519080825280602002602001820160405280156101b157816020015b61019e610da8565b8152602001906001900390816101965790505b50905060005b60025481101561055457600080828152602001908152602001600020604051806101000160405290816000820160009054906101000a900473ffffffffffffffffffffffffffffffffffffffff1673ffffffffffffffffffffffffffffffffffffffff1673ffffffffffffffffffffffffffffffffffffffff1681526020016001820154815260200160028201805461024f906115d5565b80601f016020809104026020016040519081016040528092919081815260200182805461027b906115d5565b80156102c85780601f1061029d576101008083540402835291602001916102c8565b820191906000526020600020905b8154815290600101906020018083116102ab57829003601f168201915b505050505081526020016003820180546102e1906115d5565b80601f016020809104026020016040519081016040528092919081815260200182805461030d906115d5565b801561035a5780601f1061032f5761010080835404028352916020019161035a565b820191906000526020600020905b81548152906001019060200180831161033d57829003601f168201915b50505050508152602001600482018054610373906115d5565b80601f016020809104026020016040519081016040528092919081815260200182805461039f906115d5565b80156103ec5780601f106103c1576101008083540402835291602001916103ec565b820191906000526020600020905b8154815290600101906020018083116103cf57829003601f168201915b50505050508152602001600582018054610405906115d5565b80601f0160208091040260200160405190810160405280929190818152602001828054610431906115d5565b801561047e5780601f106104535761010080835404028352916020019161047e565b820191906000526020600020905b81548152906001019060200180831161046157829003601f168201915b50505050508152602001600682015481526020016007820180546104a1906115d5565b80601f01602080910402602001604051908101604052809291908181526020018280546104cd906115d5565b801561051a5780601f106104ef5761010080835404028352916020019161051a565b820191906000526020600020905b8154815290600101906020018083116104fd57829003601f168201915b50505050508152505082828151811061053657610535611606565b5b6020026020010181905250808061054c90611664565b9150506101b7565b508091505090565b600160009054906101000a900473ffffffffffffffffffffffffffffffffffffffff1681565b6000806040518061010001604052803373ffffffffffffffffffffffffffffffffffffffff168152602001600254815260200189815260200188815260200187815260200186815260200185815260200184815250905080600080600260008154809291906105f090611664565b91905055815260200190815260200160002060008201518160000160006101000a81548173ffffffffffffffffffffffffffffffffffffffff021916908373ffffffffffffffffffffffffffffffffffffffff1602179055506020820151816001015560408201518160020190816106689190611858565b50606082015181600301908161067e9190611858565b5060808201518160040190816106949190611858565b5060a08201518160050190816106aa9190611858565b5060c0820151816006015560e08201518160070190816106ca9190611858565b509050507fd5c65868e404ad0f2a6fac5d016885bf155807a3f26ffc85fe5db80f11e79c6088888888883389604051610709979695949392919061192a565b60405180910390a16002549150509695505050505050565b60006020528060005260406000206000915090508060000160009054906101000a900473ffffffffffffffffffffffffffffffffffffffff1690806001015490806002018054610770906115d5565b80601f016020809104026020016040519081016040528092919081815260200182805461079c906115d5565b80156107e95780601f106107be576101008083540402835291602001916107e9565b820191906000526020600020905b8154815290600101906020018083116107cc57829003601f168201915b5050505050908060030180546107fe906115d5565b80601f016020809104026020016040519081016040528092919081815260200182805461082a906115d5565b80156108775780601f1061084c57610100808354040283529160200191610877565b820191906000526020600020905b81548152906001019060200180831161085a57829003601f168201915b50505050509080600401805461088c906115d5565b80601f01602080910402602001604051908101604052809291908181526020018280546108b8906115d5565b80156109055780601f106108da57610100808354040283529160200191610905565b820191906000526020600020905b8154815290600101906020018083116108e857829003601f168201915b50505050509080600501805461091a906115d5565b80601f0160208091040260200160405190810160405280929190818152602001828054610946906115d5565b80156109935780601f1061096857610100808354040283529160200191610993565b820191906000526020600020905b81548152906001019060200180831161097657829003601f168201915b5050505050908060060154908060070180546109ae906115d5565b80601f01602080910402602001604051908101604052809291908181526020018280546109da906115d5565b8015610a275780601f106109fc57610100808354040283529160200191610a27565b820191906000526020600020905b815481529060010190602001808311610a0a57829003601f168201915b5050505050905088565b610a39610da8565b600080838152602001908152602001600020604051806101000160405290816000820160009054906101000a900473ffffffffffffffffffffffffffffffffffffffff1673ffffffffffffffffffffffffffffffffffffffff1673ffffffffffffffffffffffffffffffffffffffff16815260200160018201548152602001600282018054610ac7906115d5565b80601f0160208091040260200160405190810160405280929190818152602001828054610af3906115d5565b8015610b405780601f10610b1557610100808354040283529160200191610b40565b820191906000526020600020905b815481529060010190602001808311610b2357829003601f168201915b50505050508152602001600382018054610b59906115d5565b80601f0160208091040260200160405190810160405280929190818152602001828054610b85906115d5565b8015610bd25780601f10610ba757610100808354040283529160200191610bd2565b820191906000526020600020905b815481529060010190602001808311610bb557829003601f168201915b50505050508152602001600482018054610beb906115d5565b80601f0160208091040260200160405190810160405280929190818152602001828054610c17906115d5565b8015610c645780601f10610c3957610100808354040283529160200191610c64565b820191906000526020600020905b815481529060010190602001808311610c4757829003601f168201915b50505050508152602001600582018054610c7d906115d5565b80601f0160208091040260200160405190810160405280929190818152602001828054610ca9906115d5565b8015610cf65780601f10610ccb57610100808354040283529160200191610cf6565b820191906000526020600020905b815481529060010190602001808311610cd957829003601f168201915b5050505050815260200160068201548152602001600782018054610d19906115d5565b80601f0160208091040260200160405190810160405280929190818152602001828054610d45906115d5565b8015610d925780601f10610d6757610100808354040283529160200191610d92565b820191906000526020600020905b815481529060010190602001808311610d7557829003601f168201915b5050505050815250509050919050565b60025481565b604051806101000160405280600073ffffffffffffffffffffffffffffffffffffffff168152602001600081526020016060815260200160608152602001606081526020016060815260200160008152602001606081525090565b600081519050919050565b600082825260208201905092915050565b6000819050602082019050919050565b600073ffffffffffffffffffffffffffffffffffffffff82169050919050565b6000610e5a82610e2f565b9050919050565b610e6a81610e4f565b82525050565b6000819050919050565b610e8381610e70565b82525050565b600081519050919050565b600082825260208201905092915050565b60005b83811015610ec3578082015181840152602081019050610ea8565b60008484015250505050565b6000601f19601f8301169050919050565b6000610eeb82610e89565b610ef58185610e94565b9350610f05818560208601610ea5565b610f0e81610ecf565b840191505092915050565b600061010083016000830151610f326000860182610e61565b506020830151610f456020860182610e7a565b5060408301518482036040860152610f5d8282610ee0565b91505060608301518482036060860152610f778282610ee0565b91505060808301518482036080860152610f918282610ee0565b91505060a083015184820360a0860152610fab8282610ee0565b91505060c0830151610fc060c0860182610e7a565b5060e083015184820360e0860152610fd88282610ee0565b9150508091505092915050565b6000610ff18383610f19565b905092915050565b6000602082019050919050565b600061101182610e03565b61101b8185610e0e565b93508360208202850161102d85610e1f565b8060005b85811015611069578484038952815161104a8582610fe5565b945061105583610ff9565b925060208a01995050600181019050611031565b50829750879550505050505092915050565b600060208201905081810360008301526110958184611006565b905092915050565b60006110a882610e2f565b9050919050565b6110b88161109d565b82525050565b60006020820190506110d360008301846110af565b92915050565b6000604051905090565b600080fd5b600080fd5b600080fd5b600080fd5b7f4e487b7100000000000000000000000000000000000000000000000000000000600052604160045260246000fd5b61112f82610ecf565b810181811067ffffffffffffffff8211171561114e5761114d6110f7565b5b80604052505050565b60006111616110d9565b905061116d8282611126565b919050565b600067ffffffffffffffff82111561118d5761118c6110f7565b5b61119682610ecf565b9050602081019050919050565b82818337600083830152505050565b60006111c56111c084611172565b611157565b9050828152602081018484840111156111e1576111e06110f2565b5b6111ec8482856111a3565b509392505050565b600082601f830112611209576112086110ed565b5b81356112198482602086016111b2565b91505092915050565b61122b81610e70565b811461123657600080fd5b50565b60008135905061124881611222565b92915050565b60008060008060008060c0878903121561126b5761126a6110e3565b5b600087013567ffffffffffffffff811115611289576112886110e8565b5b61129589828a016111f4565b965050602087013567ffffffffffffffff8111156112b6576112b56110e8565b5b6112c289828a016111f4565b955050604087013567ffffffffffffffff8111156112e3576112e26110e8565b5b6112ef89828a016111f4565b945050606087013567ffffffffffffffff8111156113105761130f6110e8565b5b61131c89828a016111f4565b935050608061132d89828a01611239565b92505060a087013567ffffffffffffffff81111561134e5761134d6110e8565b5b61135a89828a016111f4565b9150509295509295509295565b61137081610e70565b82525050565b600060208201905061138b6000830184611367565b92915050565b6000602082840312156113a7576113a66110e3565b5b60006113b584828501611239565b91505092915050565b6113c781610e4f565b82525050565b600082825260208201905092915050565b60006113e982610e89565b6113f381856113cd565b9350611403818560208601610ea5565b61140c81610ecf565b840191505092915050565b60006101008201905061142d600083018b6113be565b61143a602083018a611367565b818103604083015261144c81896113de565b9050818103606083015261146081886113de565b9050818103608083015261147481876113de565b905081810360a083015261148881866113de565b905061149760c0830185611367565b81810360e08301526114a981846113de565b90509998505050505050505050565b6000610100830160008301516114d16000860182610e61565b5060208301516114e46020860182610e7a565b50604083015184820360408601526114fc8282610ee0565b915050606083015184820360608601526115168282610ee0565b915050608083015184820360808601526115308282610ee0565b91505060a083015184820360a086015261154a8282610ee0565b91505060c083015161155f60c0860182610e7a565b5060e083015184820360e08601526115778282610ee0565b9150508091505092915050565b6000602082019050818103600083015261159e81846114b8565b905092915050565b7f4e487b7100000000000000000000000000000000000000000000000000000000600052602260045260246000fd5b600060028204905060018216806115ed57607f821691505b602082108103611600576115ff6115a6565b5b50919050565b7f4e487b7100000000000000000000000000000000000000000000000000000000600052603260045260246000fd5b7f4e487b7100000000000000000000000000000000000000000000000000000000600052601160045260246000fd5b600061166f82610e70565b91507fffffffffffffffffffffffffffffffffffffffffffffffffffffffffffffffff82036116a1576116a0611635565b5b600182019050919050565b60008190508160005260206000209050919050565b60006020601f8301049050919050565b600082821b905092915050565b60006008830261170e7fffffffffffffffffffffffffffffffffffffffffffffffffffffffffffffffff826116d1565b61171886836116d1565b95508019841693508086168417925050509392505050565b6000819050919050565b600061175561175061174b84610e70565b611730565b610e70565b9050919050565b6000819050919050565b61176f8361173a565b61178361177b8261175c565b8484546116de565b825550505050565b600090565b61179861178b565b6117a3818484611766565b505050565b5b818110156117c7576117bc600082611790565b6001810190506117a9565b5050565b601f82111561180c576117dd816116ac565b6117e6846116c1565b810160208510156117f5578190505b611809611801856116c1565b8301826117a8565b50505b505050565b600082821c905092915050565b600061182f60001984600802611811565b1980831691505092915050565b6000611848838361181e565b9150826002028217905092915050565b61186182610e89565b67ffffffffffffffff81111561187a576118796110f7565b5b61188482546115d5565b61188f8282856117cb565b600060209050601f8311600181146118c257600084156118b0578287015190505b6118ba858261183c565b865550611922565b601f1984166118d0866116ac565b60005b828110156118f8578489015182556001820191506020850194506020810190506118d3565b868310156119155784890151611911601f89168261181e565b8355505b6001600288020188555050505b505050505050565b600060e0820190508181036000830152611944818a6113de565b9050818103602083015261195881896113de565b9050818103604083015261196c81886113de565b9050818103606083015261198081876113de565b905061198f6080830186611367565b61199c60a08301856110af565b81810360c08301526119ae81846113de565b90509897505050505050505056fea2646970667358221220611398d97bc3777d112a29499bec9c141699dcb26e08c6da5c371398afb1b63964736f6c63430008120033",
  "linkReferences": {},
  "deployedLinkReferences": {}
}